{
  "contractName": "CollaborationAgreement",
  "abi": [
    {
      "inputs": [],
      "stateMutability": "nonpayable",
      "type": "constructor"
    },
    {
      "anonymous": false,
      "inputs": [
        {
          "indexed": true,
          "internalType": "address",
          "name": "owner",
          "type": "address"
        },
        {
          "indexed": true,
          "internalType": "address",
          "name": "spender",
          "type": "address"
        },
        {
          "indexed": false,
          "internalType": "uint256",
          "name": "value",
          "type": "uint256"
        }
      ],
      "name": "Approval",
      "type": "event"
    },
    {
      "anonymous": false,
      "inputs": [
        {
          "indexed": true,
          "internalType": "address",
          "name": "from",
          "type": "address"
        },
        {
          "indexed": true,
          "internalType": "address",
          "name": "to",
          "type": "address"
        },
        {
          "indexed": false,
          "internalType": "uint256",
          "name": "value",
          "type": "uint256"
        }
      ],
      "name": "Transfer",
      "type": "event"
    },
    {
      "inputs": [],
      "name": "agreementCount",
      "outputs": [
        {
          "internalType": "uint256",
          "name": "",
          "type": "uint256"
        }
      ],
      "stateMutability": "view",
      "type": "function",
      "constant": true
    },
    {
      "inputs": [
        {
          "internalType": "uint256",
          "name": "",
          "type": "uint256"
        }
      ],
      "name": "agreements",
      "outputs": [
        {
          "internalType": "string",
          "name": "terms",
          "type": "string"
        },
        {
          "internalType": "enum CollaborationAgreement.AgreementStatus",
          "name": "status",
          "type": "uint8"
        },
        {
          "internalType": "address",
          "name": "creator",
          "type": "address"
        },
        {
          "internalType": "uint256",
          "name": "requiredTokens",
          "type": "uint256"
        }
      ],
      "stateMutability": "view",
      "type": "function",
      "constant": true
    },
    {
      "inputs": [
        {
          "internalType": "address",
          "name": "owner",
          "type": "address"
        },
        {
          "internalType": "address",
          "name": "spender",
          "type": "address"
        }
      ],
      "name": "allowance",
      "outputs": [
        {
          "internalType": "uint256",
          "name": "",
          "type": "uint256"
        }
      ],
      "stateMutability": "view",
      "type": "function",
      "constant": true
    },
    {
      "inputs": [
        {
          "internalType": "address",
          "name": "spender",
          "type": "address"
        },
        {
          "internalType": "uint256",
          "name": "amount",
          "type": "uint256"
        }
      ],
      "name": "approve",
      "outputs": [
        {
          "internalType": "bool",
          "name": "",
          "type": "bool"
        }
      ],
      "stateMutability": "nonpayable",
      "type": "function"
    },
    {
      "inputs": [
        {
          "internalType": "address",
          "name": "account",
          "type": "address"
        }
      ],
      "name": "balanceOf",
      "outputs": [
        {
          "internalType": "uint256",
          "name": "",
          "type": "uint256"
        }
      ],
      "stateMutability": "view",
      "type": "function",
      "constant": true
    },
    {
      "inputs": [],
      "name": "decimals",
      "outputs": [
        {
          "internalType": "uint8",
          "name": "",
          "type": "uint8"
        }
      ],
      "stateMutability": "view",
      "type": "function",
      "constant": true
    },
    {
      "inputs": [
        {
          "internalType": "address",
          "name": "spender",
          "type": "address"
        },
        {
          "internalType": "uint256",
          "name": "subtractedValue",
          "type": "uint256"
        }
      ],
      "name": "decreaseAllowance",
      "outputs": [
        {
          "internalType": "bool",
          "name": "",
          "type": "bool"
        }
      ],
      "stateMutability": "nonpayable",
      "type": "function"
    },
    {
      "inputs": [
        {
          "internalType": "address",
          "name": "spender",
          "type": "address"
        },
        {
          "internalType": "uint256",
          "name": "addedValue",
          "type": "uint256"
        }
      ],
      "name": "increaseAllowance",
      "outputs": [
        {
          "internalType": "bool",
          "name": "",
          "type": "bool"
        }
      ],
      "stateMutability": "nonpayable",
      "type": "function"
    },
    {
      "inputs": [],
      "name": "name",
      "outputs": [
        {
          "internalType": "string",
          "name": "",
          "type": "string"
        }
      ],
      "stateMutability": "view",
      "type": "function",
      "constant": true
    },
    {
      "inputs": [],
      "name": "symbol",
      "outputs": [
        {
          "internalType": "string",
          "name": "",
          "type": "string"
        }
      ],
      "stateMutability": "view",
      "type": "function",
      "constant": true
    },
    {
      "inputs": [],
      "name": "tokenPrice",
      "outputs": [
        {
          "internalType": "uint256",
          "name": "",
          "type": "uint256"
        }
      ],
      "stateMutability": "view",
      "type": "function",
      "constant": true
    },
    {
      "inputs": [],
      "name": "totalSupply",
      "outputs": [
        {
          "internalType": "uint256",
          "name": "",
          "type": "uint256"
        }
      ],
      "stateMutability": "view",
      "type": "function",
      "constant": true
    },
    {
      "inputs": [
        {
          "internalType": "address",
          "name": "to",
          "type": "address"
        },
        {
          "internalType": "uint256",
          "name": "amount",
          "type": "uint256"
        }
      ],
      "name": "transfer",
      "outputs": [
        {
          "internalType": "bool",
          "name": "",
          "type": "bool"
        }
      ],
      "stateMutability": "nonpayable",
      "type": "function"
    },
    {
      "inputs": [
        {
          "internalType": "address",
          "name": "from",
          "type": "address"
        },
        {
          "internalType": "address",
          "name": "to",
          "type": "address"
        },
        {
          "internalType": "uint256",
          "name": "amount",
          "type": "uint256"
        }
      ],
      "name": "transferFrom",
      "outputs": [
        {
          "internalType": "bool",
          "name": "",
          "type": "bool"
        }
      ],
      "stateMutability": "nonpayable",
      "type": "function"
    },
    {
      "inputs": [
        {
          "internalType": "uint256",
          "name": "newPrice",
          "type": "uint256"
        }
      ],
      "name": "setTokenPrice",
      "outputs": [],
      "stateMutability": "nonpayable",
      "type": "function"
    },
    {
      "inputs": [
        {
          "internalType": "string",
          "name": "terms",
          "type": "string"
        },
        {
          "internalType": "uint256",
          "name": "requiredTokens",
          "type": "uint256"
        }
      ],
      "name": "createAgreement",
      "outputs": [],
      "stateMutability": "nonpayable",
      "type": "function"
    },
    {
      "inputs": [
        {
          "internalType": "uint256",
          "name": "agreementId",
          "type": "uint256"
        }
      ],
      "name": "signAgreement",
      "outputs": [],
      "stateMutability": "nonpayable",
      "type": "function"
    },
    {
      "inputs": [],
      "name": "buyTokens",
      "outputs": [],
      "stateMutability": "payable",
      "type": "function",
      "payable": true
    },
    {
      "inputs": [
        {
          "internalType": "uint256",
          "name": "agreementId",
          "type": "uint256"
        },
        {
          "internalType": "uint256",
          "name": "amount",
          "type": "uint256"
        }
      ],
      "name": "provideContributionTokens",
      "outputs": [],
      "stateMutability": "nonpayable",
      "type": "function"
    }
  ],
  "bytecode": "0x60806040523480156200001157600080fd5b506040518060400160405280601081526020017f536b696c6c436f6c6c6162546f6b656e000000000000000000000000000000008152506040518060400160405280600381526020017f5343540000000000000000000000000000000000000000000000000000000000815250816003908051906020019062000096929190620000c7565b508060049080519060200190620000af929190620000c7565b505050670de0b6b3a7640000600781905550620001dc565b828054620000d59062000177565b90600052602060002090601f016020900481019282620000f9576000855562000145565b82601f106200011457805160ff191683800117855562000145565b8280016001018555821562000145579182015b828111156200014457825182559160200191906001019062000127565b5b50905062000154919062000158565b5090565b5b808211156200017357600081600090555060010162000159565b5090565b600060028204905060018216806200019057607f821691505b60208210811415620001a757620001a6620001ad565b5b50919050565b7f4e487b7100000000000000000000000000000000000000000000000000000000600052602260045260246000fd5b61275380620001ec6000396000f3fe6080604052600436106101145760003560e01c806370a08231116100a0578063bb7bb27811610064578063bb7bb278146103d9578063bd14de9614610404578063d0febe4c14610444578063dd62ed3e1461044e578063fe01175f1461048b57610114565b806370a08231146102cc5780637ff9b5961461030957806395d89b4114610334578063a457c2d71461035f578063a9059cbb1461039c57610114565b806323b872dd116100e757806323b872dd146101d5578063313ce56714610212578063395093511461023d5780636384f28a1461027a5780636a61e5fc146102a357610114565b806303742de01461011957806306fdde0314610142578063095ea7b31461016d57806318160ddd146101aa575b600080fd5b34801561012557600080fd5b50610140600480360381019061013b91906119fa565b6104b4565b005b34801561014e57600080fd5b506101576106b6565b60405161016491906120e0565b60405180910390f35b34801561017957600080fd5b50610194600480360381019061018f919061196a565b610748565b6040516101a191906120c5565b60405180910390f35b3480156101b657600080fd5b506101bf61076b565b6040516101cc919061236e565b60405180910390f35b3480156101e157600080fd5b506101fc60048036038101906101f7919061191b565b610775565b60405161020991906120c5565b60405180910390f35b34801561021e57600080fd5b506102276107a4565b6040516102349190612389565b60405180910390f35b34801561024957600080fd5b50610264600480360381019061025f919061196a565b6107ad565b60405161027191906120c5565b60405180910390f35b34801561028657600080fd5b506102a1600480360381019061029c91906119a6565b6107e4565b005b3480156102af57600080fd5b506102ca60048036038101906102c591906119fa565b610a21565b005b3480156102d857600080fd5b506102f360048036038101906102ee91906118b6565b610a6e565b604051610300919061236e565b60405180910390f35b34801561031557600080fd5b5061031e610ab6565b60405161032b919061236e565b60405180910390f35b34801561034057600080fd5b50610349610abc565b60405161035691906120e0565b60405180910390f35b34801561036b57600080fd5b506103866004803603810190610381919061196a565b610b4e565b60405161039391906120c5565b60405180910390f35b3480156103a857600080fd5b506103c360048036038101906103be919061196a565b610bc5565b6040516103d091906120c5565b60405180910390f35b3480156103e557600080fd5b506103ee610be8565b6040516103fb919061236e565b60405180910390f35b34801561041057600080fd5b5061042b600480360381019061042691906119fa565b610bee565b60405161043b9493929190612102565b60405180910390f35b61044c610cd3565b005b34801561045a57600080fd5b50610475600480360381019061047091906118df565b610d78565b604051610482919061236e565b60405180910390f35b34801561049757600080fd5b506104b260048036038101906104ad9190611a23565b610dff565b005b60065481111580156104c65750600081115b610505576040517f08c379a00000000000000000000000000000000000000000000000000000000081526004016104fc906121ae565b60405180910390fd5b6000600381111561053f577f4e487b7100000000000000000000000000000000000000000000000000000000600052602160045260246000fd5b6005600083815260200190815260200160002060010160009054906101000a900460ff16600381111561059b577f4e487b7100000000000000000000000000000000000000000000000000000000600052602160045260246000fd5b146105db576040517f08c379a00000000000000000000000000000000000000000000000000000000081526004016105d29061216e565b60405180910390fd5b60056000828152602001908152602001600020600301546105fb33610a6e565b101561063c576040517f08c379a00000000000000000000000000000000000000000000000000000000081526004016106339061222e565b60405180910390fd5b60056000828152602001908152602001600020600201339080600181540180825580915050600190039060005260206000200160009091909190916101000a81548173ffffffffffffffffffffffffffffffffffffffff021916908373ffffffffffffffffffffffffffffffffffffffff16021790555050565b6060600380546106c590612564565b80601f01602080910402602001604051908101604052809291908181526020018280546106f190612564565b801561073e5780601f106107135761010080835404028352916020019161073e565b820191906000526020600020905b81548152906001019060200180831161072157829003601f168201915b5050505050905090565b6000806107536110bf565b90506107608185856110c7565b600191505092915050565b6000600254905090565b6000806107806110bf565b905061078d858285611292565b61079885858561131e565b60019150509392505050565b60006012905090565b6000806107b86110bf565b90506107d98185856107ca8589610d78565b6107d49190612421565b6110c7565b600191505092915050565b60008111610827576040517f08c379a000000000000000000000000000000000000000000000000000000000815260040161081e9061228e565b60405180910390fd5b6006600081548092919061083a90612596565b91905055506040518060a001604052808381526020016000600381111561088a577f4e487b7100000000000000000000000000000000000000000000000000000000600052602160045260246000fd5b81526020013373ffffffffffffffffffffffffffffffffffffffff168152602001600067ffffffffffffffff8111156108ec577f4e487b7100000000000000000000000000000000000000000000000000000000600052604160045260246000fd5b60405190808252806020026020018201604052801561091a5781602001602082028036833780820191505090505b5081526020018281525060056000600654815260200190815260200160002060008201518160000190805190602001906109559291906116f7565b5060208201518160010160006101000a81548160ff021916908360038111156109a7577f4e487b7100000000000000000000000000000000000000000000000000000000600052602160045260246000fd5b021790555060408201518160010160016101000a81548173ffffffffffffffffffffffffffffffffffffffff021916908373ffffffffffffffffffffffffffffffffffffffff1602179055506060820151816002019080519060200190610a0f92919061177d565b50608082015181600301559050505050565b60008111610a64576040517f08c379a0000000000000000000000000000000000000000000000000000000008152600401610a5b9061226e565b60405180910390fd5b8060078190555050565b60008060008373ffffffffffffffffffffffffffffffffffffffff1673ffffffffffffffffffffffffffffffffffffffff168152602001908152602001600020549050919050565b60075481565b606060048054610acb90612564565b80601f0160208091040260200160405190810160405280929190818152602001828054610af790612564565b8015610b445780601f10610b1957610100808354040283529160200191610b44565b820191906000526020600020905b815481529060010190602001808311610b2757829003601f168201915b5050505050905090565b600080610b596110bf565b90506000610b678286610d78565b905083811015610bac576040517f08c379a0000000000000000000000000000000000000000000000000000000008152600401610ba39061232e565b60405180910390fd5b610bb982868684036110c7565b60019250505092915050565b600080610bd06110bf565b9050610bdd81858561131e565b600191505092915050565b60065481565b6005602052806000526040600020600091509050806000018054610c1190612564565b80601f0160208091040260200160405190810160405280929190818152602001828054610c3d90612564565b8015610c8a5780601f10610c5f57610100808354040283529160200191610c8a565b820191906000526020600020905b815481529060010190602001808311610c6d57829003601f168201915b5050505050908060010160009054906101000a900460ff16908060010160019054906101000a900473ffffffffffffffffffffffffffffffffffffffff16908060030154905084565b60003411610d16576040517f08c379a0000000000000000000000000000000000000000000000000000000008152600401610d0d906121ce565b60405180910390fd5b600060075434610d269190612477565b905060008111610d6b576040517f08c379a0000000000000000000000000000000000000000000000000000000008152600401610d62906122ee565b60405180910390fd5b610d753382611596565b50565b6000600160008473ffffffffffffffffffffffffffffffffffffffff1673ffffffffffffffffffffffffffffffffffffffff16815260200190815260200160002060008373ffffffffffffffffffffffffffffffffffffffff1673ffffffffffffffffffffffffffffffffffffffff16815260200190815260200160002054905092915050565b6006548211158015610e115750600082115b610e50576040517f08c379a0000000000000000000000000000000000000000000000000000000008152600401610e47906121ae565b60405180910390fd5b60016003811115610e8a577f4e487b7100000000000000000000000000000000000000000000000000000000600052602160045260246000fd5b6005600084815260200190815260200160002060010160009054906101000a900460ff166003811115610ee6577f4e487b7100000000000000000000000000000000000000000000000000000000600052602160045260246000fd5b14610f26576040517f08c379a0000000000000000000000000000000000000000000000000000000008152600401610f1d9061224e565b60405180910390fd5b6005600083815260200190815260200160002060010160019054906101000a900473ffffffffffffffffffffffffffffffffffffffff1673ffffffffffffffffffffffffffffffffffffffff163373ffffffffffffffffffffffffffffffffffffffff1614610fca576040517f08c379a0000000000000000000000000000000000000000000000000000000008152600401610fc19061230e565b60405180910390fd5b60005b60056000848152602001908152602001600020600201805490508110156110ba576110a76005600085815260200190815260200160002060010160019054906101000a900473ffffffffffffffffffffffffffffffffffffffff16600560008681526020019081526020016000206002018381548110611076577f4e487b7100000000000000000000000000000000000000000000000000000000600052603260045260246000fd5b9060005260206000200160009054906101000a900473ffffffffffffffffffffffffffffffffffffffff168461131e565b80806110b290612596565b915050610fcd565b505050565b600033905090565b600073ffffffffffffffffffffffffffffffffffffffff168373ffffffffffffffffffffffffffffffffffffffff161415611137576040517f08c379a000000000000000000000000000000000000000000000000000000000815260040161112e906122ce565b60405180910390fd5b600073ffffffffffffffffffffffffffffffffffffffff168273ffffffffffffffffffffffffffffffffffffffff1614156111a7576040517f08c379a000000000000000000000000000000000000000000000000000000000815260040161119e9061218e565b60405180910390fd5b80600160008573ffffffffffffffffffffffffffffffffffffffff1673ffffffffffffffffffffffffffffffffffffffff16815260200190815260200160002060008473ffffffffffffffffffffffffffffffffffffffff1673ffffffffffffffffffffffffffffffffffffffff168152602001908152602001600020819055508173ffffffffffffffffffffffffffffffffffffffff168373ffffffffffffffffffffffffffffffffffffffff167f8c5be1e5ebec7d5bd14f71427d1e84f3dd0314c0f7b2291e5b200ac8c7c3b92583604051611285919061236e565b60405180910390a3505050565b600061129e8484610d78565b90507fffffffffffffffffffffffffffffffffffffffffffffffffffffffffffffffff8114611318578181101561130a576040517f08c379a0000000000000000000000000000000000000000000000000000000008152600401611301906121ee565b60405180910390fd5b61131784848484036110c7565b5b50505050565b600073ffffffffffffffffffffffffffffffffffffffff168373ffffffffffffffffffffffffffffffffffffffff16141561138e576040517f08c379a0000000000000000000000000000000000000000000000000000000008152600401611385906122ae565b60405180910390fd5b600073ffffffffffffffffffffffffffffffffffffffff168273ffffffffffffffffffffffffffffffffffffffff1614156113fe576040517f08c379a00000000000000000000000000000000000000000000000000000000081526004016113f59061214e565b60405180910390fd5b6114098383836116ed565b60008060008573ffffffffffffffffffffffffffffffffffffffff1673ffffffffffffffffffffffffffffffffffffffff1681526020019081526020016000205490508181101561148f576040517f08c379a00000000000000000000000000000000000000000000000000000000081526004016114869061220e565b60405180910390fd5b8181036000808673ffffffffffffffffffffffffffffffffffffffff1673ffffffffffffffffffffffffffffffffffffffff16815260200190815260200160002081905550816000808573ffffffffffffffffffffffffffffffffffffffff1673ffffffffffffffffffffffffffffffffffffffff168152602001908152602001600020600082825401925050819055508273ffffffffffffffffffffffffffffffffffffffff168473ffffffffffffffffffffffffffffffffffffffff167fddf252ad1be2c89b69c2b068fc378daa952ba7f163c4a11628f55a4df523b3ef8460405161157d919061236e565b60405180910390a36115908484846116f2565b50505050565b600073ffffffffffffffffffffffffffffffffffffffff168273ffffffffffffffffffffffffffffffffffffffff161415611606576040517f08c379a00000000000000000000000000000000000000000000000000000000081526004016115fd9061234e565b60405180910390fd5b611612600083836116ed565b80600260008282546116249190612421565b92505081905550806000808473ffffffffffffffffffffffffffffffffffffffff1673ffffffffffffffffffffffffffffffffffffffff168152602001908152602001600020600082825401925050819055508173ffffffffffffffffffffffffffffffffffffffff16600073ffffffffffffffffffffffffffffffffffffffff167fddf252ad1be2c89b69c2b068fc378daa952ba7f163c4a11628f55a4df523b3ef836040516116d5919061236e565b60405180910390a36116e9600083836116f2565b5050565b505050565b505050565b82805461170390612564565b90600052602060002090601f016020900481019282611725576000855561176c565b82601f1061173e57805160ff191683800117855561176c565b8280016001018555821561176c579182015b8281111561176b578251825591602001919060010190611750565b5b5090506117799190611807565b5090565b8280548282559060005260206000209081019282156117f6579160200282015b828111156117f55782518260006101000a81548173ffffffffffffffffffffffffffffffffffffffff021916908373ffffffffffffffffffffffffffffffffffffffff1602179055509160200191906001019061179d565b5b5090506118039190611807565b5090565b5b80821115611820576000816000905550600101611808565b5090565b6000611837611832846123d5565b6123a4565b90508281526020810184848401111561184f57600080fd5b61185a848285612522565b509392505050565b600081359050611871816126ef565b92915050565b600082601f83011261188857600080fd5b8135611898848260208601611824565b91505092915050565b6000813590506118b081612706565b92915050565b6000602082840312156118c857600080fd5b60006118d684828501611862565b91505092915050565b600080604083850312156118f257600080fd5b600061190085828601611862565b925050602061191185828601611862565b9150509250929050565b60008060006060848603121561193057600080fd5b600061193e86828701611862565b935050602061194f86828701611862565b9250506040611960868287016118a1565b9150509250925092565b6000806040838503121561197d57600080fd5b600061198b85828601611862565b925050602061199c858286016118a1565b9150509250929050565b600080604083850312156119b957600080fd5b600083013567ffffffffffffffff8111156119d357600080fd5b6119df85828601611877565b92505060206119f0858286016118a1565b9150509250929050565b600060208284031215611a0c57600080fd5b6000611a1a848285016118a1565b91505092915050565b60008060408385031215611a3657600080fd5b6000611a44858286016118a1565b9250506020611a55858286016118a1565b9150509250929050565b611a68816124a8565b82525050565b611a77816124ba565b82525050565b611a8681612510565b82525050565b6000611a9782612405565b611aa18185612410565b9350611ab1818560208601612531565b611aba816126ca565b840191505092915050565b6000611ad2602383612410565b91507f45524332303a207472616e7366657220746f20746865207a65726f206164647260008301527f65737300000000000000000000000000000000000000000000000000000000006020830152604082019050919050565b6000611b38602483612410565b91507f41677265656d656e74206973206e6f74206f70656e20666f72207369676e617460008301527f75726573000000000000000000000000000000000000000000000000000000006020830152604082019050919050565b6000611b9e602283612410565b91507f45524332303a20617070726f766520746f20746865207a65726f20616464726560008301527f73730000000000000000000000000000000000000000000000000000000000006020830152604082019050919050565b6000611c04601483612410565b91507f496e76616c69642061677265656d656e742049440000000000000000000000006000830152602082019050919050565b6000611c44602083612410565b91507f4d7573742073656e642045544820746f20707572636861736520746f6b656e736000830152602082019050919050565b6000611c84601d83612410565b91507f45524332303a20696e73756666696369656e7420616c6c6f77616e63650000006000830152602082019050919050565b6000611cc4602683612410565b91507f45524332303a207472616e7366657220616d6f756e742065786365656473206260008301527f616c616e636500000000000000000000000000000000000000000000000000006020830152604082019050919050565b6000611d2a602983612410565b91507f496e73756666696369656e7420746f6b656e7320746f207369676e207468652060008301527f61677265656d656e7400000000000000000000000000000000000000000000006020830152604082019050919050565b6000611d90601783612410565b91507f41677265656d656e74206973206e6f74206163746976650000000000000000006000830152602082019050919050565b6000611dd0602583612410565b91507f546f6b656e207072696365206d7573742062652067726561746572207468616e60008301527f207a65726f0000000000000000000000000000000000000000000000000000006020830152604082019050919050565b6000611e36602983612410565b91507f526571756972656420746f6b656e73206d75737420626520677265617465722060008301527f7468616e207a65726f00000000000000000000000000000000000000000000006020830152604082019050919050565b6000611e9c602583612410565b91507f45524332303a207472616e736665722066726f6d20746865207a65726f20616460008301527f64726573730000000000000000000000000000000000000000000000000000006020830152604082019050919050565b6000611f02602483612410565b91507f45524332303a20617070726f76652066726f6d20746865207a65726f2061646460008301527f72657373000000000000000000000000000000000000000000000000000000006020830152604082019050919050565b6000611f68602883612410565b91507f496e73756666696369656e74204554482073656e7420746f207075726368617360008301527f6520746f6b656e730000000000000000000000000000000000000000000000006020830152604082019050919050565b6000611fce601f83612410565b91507f4f6e6c79207468652063726561746f722063616e20636f6e74726962757465006000830152602082019050919050565b600061200e602583612410565b91507f45524332303a2064656372656173656420616c6c6f77616e63652062656c6f7760008301527f207a65726f0000000000000000000000000000000000000000000000000000006020830152604082019050919050565b6000612074601f83612410565b91507f45524332303a206d696e7420746f20746865207a65726f2061646472657373006000830152602082019050919050565b6120b0816124f9565b82525050565b6120bf81612503565b82525050565b60006020820190506120da6000830184611a6e565b92915050565b600060208201905081810360008301526120fa8184611a8c565b905092915050565b6000608082019050818103600083015261211c8187611a8c565b905061212b6020830186611a7d565b6121386040830185611a5f565b61214560608301846120a7565b95945050505050565b6000602082019050818103600083015261216781611ac5565b9050919050565b6000602082019050818103600083015261218781611b2b565b9050919050565b600060208201905081810360008301526121a781611b91565b9050919050565b600060208201905081810360008301526121c781611bf7565b9050919050565b600060208201905081810360008301526121e781611c37565b9050919050565b6000602082019050818103600083015261220781611c77565b9050919050565b6000602082019050818103600083015261222781611cb7565b9050919050565b6000602082019050818103600083015261224781611d1d565b9050919050565b6000602082019050818103600083015261226781611d83565b9050919050565b6000602082019050818103600083015261228781611dc3565b9050919050565b600060208201905081810360008301526122a781611e29565b9050919050565b600060208201905081810360008301526122c781611e8f565b9050919050565b600060208201905081810360008301526122e781611ef5565b9050919050565b6000602082019050818103600083015261230781611f5b565b9050919050565b6000602082019050818103600083015261232781611fc1565b9050919050565b6000602082019050818103600083015261234781612001565b9050919050565b6000602082019050818103600083015261236781612067565b9050919050565b600060208201905061238360008301846120a7565b92915050565b600060208201905061239e60008301846120b6565b92915050565b6000604051905081810181811067ffffffffffffffff821117156123cb576123ca61269b565b5b8060405250919050565b600067ffffffffffffffff8211156123f0576123ef61269b565b5b601f19601f8301169050602081019050919050565b600081519050919050565b600082825260208201905092915050565b600061242c826124f9565b9150612437836124f9565b9250827fffffffffffffffffffffffffffffffffffffffffffffffffffffffffffffffff0382111561246c5761246b6125df565b5b828201905092915050565b6000612482826124f9565b915061248d836124f9565b92508261249d5761249c61260e565b5b828204905092915050565b60006124b3826124d9565b9050919050565b60008115159050919050565b60008190506124d4826126db565b919050565b600073ffffffffffffffffffffffffffffffffffffffff82169050919050565b6000819050919050565b600060ff82169050919050565b600061251b826124c6565b9050919050565b82818337600083830152505050565b60005b8381101561254f578082015181840152602081019050612534565b8381111561255e576000848401525b50505050565b6000600282049050600182168061257c57607f821691505b602082108114156125905761258f61266c565b5b50919050565b60006125a1826124f9565b91507fffffffffffffffffffffffffffffffffffffffffffffffffffffffffffffffff8214156125d4576125d36125df565b5b600182019050919050565b7f4e487b7100000000000000000000000000000000000000000000000000000000600052601160045260246000fd5b7f4e487b7100000000000000000000000000000000000000000000000000000000600052601260045260246000fd5b7f4e487b7100000000000000000000000000000000000000000000000000000000600052602160045260246000fd5b7f4e487b7100000000000000000000000000000000000000000000000000000000600052602260045260246000fd5b7f4e487b7100000000000000000000000000000000000000000000000000000000600052604160045260246000fd5b6000601f19601f8301169050919050565b600481106126ec576126eb61263d565b5b50565b6126f8816124a8565b811461270357600080fd5b50565b61270f816124f9565b811461271a57600080fd5b5056fea264697066735822122063c6964af34b8d0da2fdda8e34e87c6eeb5e585bfde7d35eae9fc0012819119e64736f6c63430008000033",
  "immutableReferences": {},
  "source": "// SPDX-License-Identifier: MIT\r\npragma solidity ^0.8.0;\r\n\r\nimport \"@openzeppelin/contracts/token/ERC20/ERC20.sol\";\r\n\r\ncontract CollaborationAgreement is ERC20 {\r\n    enum AgreementStatus {\r\n        Pending,\r\n        Active,\r\n        Completed,\r\n        Cancelled\r\n    }\r\n\r\n    struct Agreement {\r\n        string terms;\r\n        AgreementStatus status;\r\n        address creator;\r\n        address[] collaborators;\r\n        uint256 requiredTokens;\r\n    }\r\n\r\n    mapping(uint256 => Agreement) public agreements;\r\n    uint256 public agreementCount;\r\n    uint256 public tokenPrice;\r\n\r\n    constructor() ERC20(\"SkillCollabToken\", \"SCT\") {\r\n        tokenPrice = 1 ether;\r\n    }\r\n\r\n     function setTokenPrice(uint256 newPrice) external {\r\n        require(newPrice > 0, \"Token price must be greater than zero\");\r\n        tokenPrice = newPrice;\r\n    }\r\n\r\n    function createAgreement(\r\n        string memory terms,\r\n        uint256 requiredTokens\r\n    ) external {\r\n        require(requiredTokens > 0, \"Required tokens must be greater than zero\");\r\n        agreementCount++;\r\n        agreements[agreementCount] = Agreement({\r\n            terms: terms,\r\n            status: AgreementStatus.Pending,\r\n            creator: msg.sender,\r\n            collaborators: new address[](0),\r\n            requiredTokens: requiredTokens\r\n        });\r\n    }\r\n\r\n    function signAgreement(uint256 agreementId) external {\r\n        require(agreementId <= agreementCount && agreementId > 0, \"Invalid agreement ID\");\r\n        require(\r\n            agreements[agreementId].status == AgreementStatus.Pending,\r\n            \"Agreement is not open for signatures\"\r\n        );\r\n        require(\r\n            balanceOf(msg.sender) >= agreements[agreementId].requiredTokens,\r\n            \"Insufficient tokens to sign the agreement\"\r\n        );\r\n\r\n        agreements[agreementId].collaborators.push(msg.sender);\r\n    }\r\n\r\n    function buyTokens() external payable {\r\n        require(msg.value > 0, \"Must send ETH to purchase tokens\");\r\n\r\n        uint256 tokensPurchased = msg.value / tokenPrice;\r\n        require(tokensPurchased > 0, \"Insufficient ETH sent to purchase tokens\");\r\n\r\n        _mint(msg.sender, tokensPurchased);\r\n    }\r\n\r\n    function provideContributionTokens(uint256 agreementId, uint256 amount) external {\r\n        require(agreementId <= agreementCount && agreementId > 0, \"Invalid agreement ID\");\r\n        require(\r\n            agreements[agreementId].status == AgreementStatus.Active,\r\n            \"Agreement is not active\"\r\n        );\r\n        require(msg.sender == agreements[agreementId].creator, \"Only the creator can contribute\");\r\n\r\n        for (uint256 i = 0; i < agreements[agreementId].collaborators.length; i++) {\r\n            _transfer(agreements[agreementId].creator, agreements[agreementId].collaborators[i], amount);\r\n        }\r\n    }\r\n\r\n    function isCollaborator(uint256 agreementId, address user) internal view returns (bool) {\r\n        for (uint256 i = 0; i < agreements[agreementId].collaborators.length; i++) {\r\n            if (agreements[agreementId].collaborators[i] == user) {\r\n                return true;\r\n            }\r\n        }\r\n        return false;\r\n    }\r\n}\r\n",
  "sourcePath": "G:\\Github-Repo\\Tech Creed\\TRINIT-TECHCREED-WEB3\\contracts\\CollabAgreementAndSCToken.sol",
  "compiler": {
    "name": "solc",
    "version": "0.8.0+commit.c7dfd78e.Emscripten.clang"
  },
  "schemaVersion": "3.4.16",
  "updatedAt": "2024-03-10T01:36:00.314Z",
  "networkType": "ethereum",
  "devdoc": {
    "kind": "dev",
    "methods": {
      "allowance(address,address)": {
        "details": "See {IERC20-allowance}."
      },
      "approve(address,uint256)": {
        "details": "See {IERC20-approve}. NOTE: If `amount` is the maximum `uint256`, the allowance is not updated on `transferFrom`. This is semantically equivalent to an infinite approval. Requirements: - `spender` cannot be the zero address."
      },
      "balanceOf(address)": {
        "details": "See {IERC20-balanceOf}."
      },
      "decimals()": {
        "details": "Returns the number of decimals used to get its user representation. For example, if `decimals` equals `2`, a balance of `505` tokens should be displayed to a user as `5.05` (`505 / 10 ** 2`). Tokens usually opt for a value of 18, imitating the relationship between Ether and Wei. This is the value {ERC20} uses, unless this function is overridden; NOTE: This information is only used for _display_ purposes: it in no way affects any of the arithmetic of the contract, including {IERC20-balanceOf} and {IERC20-transfer}."
      },
      "decreaseAllowance(address,uint256)": {
        "details": "Atomically decreases the allowance granted to `spender` by the caller. This is an alternative to {approve} that can be used as a mitigation for problems described in {IERC20-approve}. Emits an {Approval} event indicating the updated allowance. Requirements: - `spender` cannot be the zero address. - `spender` must have allowance for the caller of at least `subtractedValue`."
      },
      "increaseAllowance(address,uint256)": {
        "details": "Atomically increases the allowance granted to `spender` by the caller. This is an alternative to {approve} that can be used as a mitigation for problems described in {IERC20-approve}. Emits an {Approval} event indicating the updated allowance. Requirements: - `spender` cannot be the zero address."
      },
      "name()": {
        "details": "Returns the name of the token."
      },
      "symbol()": {
        "details": "Returns the symbol of the token, usually a shorter version of the name."
      },
      "totalSupply()": {
        "details": "See {IERC20-totalSupply}."
      },
      "transfer(address,uint256)": {
        "details": "See {IERC20-transfer}. Requirements: - `to` cannot be the zero address. - the caller must have a balance of at least `amount`."
      },
      "transferFrom(address,address,uint256)": {
        "details": "See {IERC20-transferFrom}. Emits an {Approval} event indicating the updated allowance. This is not required by the EIP. See the note at the beginning of {ERC20}. NOTE: Does not update the allowance if the current allowance is the maximum `uint256`. Requirements: - `from` and `to` cannot be the zero address. - `from` must have a balance of at least `amount`. - the caller must have allowance for ``from``'s tokens of at least `amount`."
      }
    },
    "version": 1
  },
  "userdoc": {
    "kind": "user",
    "methods": {},
    "version": 1
  }
}