{
  "contractName": "IdentityVerification",
  "abi": [
    {
      "inputs": [],
      "name": "documentCount",
      "outputs": [
        {
          "internalType": "uint256",
          "name": "",
          "type": "uint256"
        }
      ],
      "stateMutability": "view",
      "type": "function",
      "constant": true
    },
    {
      "inputs": [
        {
          "internalType": "address",
          "name": "",
          "type": "address"
        }
      ],
      "name": "documents",
      "outputs": [
        {
          "internalType": "string",
          "name": "ipfsUrl",
          "type": "string"
        },
        {
          "internalType": "enum IdentityVerification.VerificationStatus",
          "name": "status",
          "type": "uint8"
        },
        {
          "internalType": "address",
          "name": "submittedBy",
          "type": "address"
        },
        {
          "internalType": "address",
          "name": "verifiedBy",
          "type": "address"
        }
      ],
      "stateMutability": "view",
      "type": "function",
      "constant": true
    },
    {
      "inputs": [
        {
          "internalType": "uint256",
          "name": "",
          "type": "uint256"
        }
      ],
      "name": "users",
      "outputs": [
        {
          "internalType": "address",
          "name": "",
          "type": "address"
        }
      ],
      "stateMutability": "view",
      "type": "function",
      "constant": true
    },
    {
      "inputs": [
        {
          "internalType": "string",
          "name": "ipfsUrl",
          "type": "string"
        }
      ],
      "name": "submitDocument",
      "outputs": [],
      "stateMutability": "nonpayable",
      "type": "function"
    },
    {
      "inputs": [
        {
          "internalType": "address",
          "name": "user",
          "type": "address"
        },
        {
          "internalType": "enum IdentityVerification.VerificationStatus",
          "name": "status",
          "type": "uint8"
        }
      ],
      "name": "verifyDocument",
      "outputs": [],
      "stateMutability": "nonpayable",
      "type": "function"
    }
  ],
  "bytecode": "0x60806040526000805534801561001457600080fd5b50610f57806100246000396000f3fe608060405234801561001057600080fd5b50600436106100575760003560e01c8063365b98b21461005c57806393dc3f1a1461008c578063a5b16b2e146100a8578063cbe99b39146100c6578063d6fb8eb2146100f9575b600080fd5b610076600480360381019061007191906109c4565b610115565b6040516100839190610b85565b60405180910390f35b6100a660048036038101906100a19190610983565b610154565b005b6100b06104b0565b6040516100bd9190610c4c565b60405180910390f35b6100e060048036038101906100db919061091e565b6104b6565b6040516100f09493929190610ba0565b60405180910390f35b610113600480360381019061010e9190610947565b6105bb565b005b6002818154811061012557600080fd5b906000526020600020016000915054906101000a900473ffffffffffffffffffffffffffffffffffffffff1681565b6000815111610198576040517f08c379a000000000000000000000000000000000000000000000000000000000815260040161018f90610bec565b60405180910390fd5b600073ffffffffffffffffffffffffffffffffffffffff16600160003373ffffffffffffffffffffffffffffffffffffffff1673ffffffffffffffffffffffffffffffffffffffff16815260200190815260200160002060010160019054906101000a900473ffffffffffffffffffffffffffffffffffffffff1673ffffffffffffffffffffffffffffffffffffffff1614610269576040517f08c379a000000000000000000000000000000000000000000000000000000000815260040161026090610c2c565b60405180910390fd5b6040518060800160405280828152602001600060028111156102b4577f4e487b7100000000000000000000000000000000000000000000000000000000600052602160045260246000fd5b81526020013373ffffffffffffffffffffffffffffffffffffffff168152602001600073ffffffffffffffffffffffffffffffffffffffff16815250600160003373ffffffffffffffffffffffffffffffffffffffff1673ffffffffffffffffffffffffffffffffffffffff168152602001908152602001600020600082015181600001908051906020019061034b9291906107d4565b5060208201518160010160006101000a81548160ff0219169083600281111561039d577f4e487b7100000000000000000000000000000000000000000000000000000000600052602160045260246000fd5b021790555060408201518160010160016101000a81548173ffffffffffffffffffffffffffffffffffffffff021916908373ffffffffffffffffffffffffffffffffffffffff16021790555060608201518160020160006101000a81548173ffffffffffffffffffffffffffffffffffffffff021916908373ffffffffffffffffffffffffffffffffffffffff16021790555090505060008081548092919061044590610db9565b91905055506002339080600181540180825580915050600190039060005260206000200160009091909190916101000a81548173ffffffffffffffffffffffffffffffffffffffff021916908373ffffffffffffffffffffffffffffffffffffffff16021790555050565b60005481565b60016020528060005260406000206000915090508060000180546104d990610d87565b80601f016020809104026020016040519081016040528092919081815260200182805461050590610d87565b80156105525780601f1061052757610100808354040283529160200191610552565b820191906000526020600020905b81548152906001019060200180831161053557829003601f168201915b5050505050908060010160009054906101000a900460ff16908060010160019054906101000a900473ffffffffffffffffffffffffffffffffffffffff16908060020160009054906101000a900473ffffffffffffffffffffffffffffffffffffffff16905084565b81600060028111156105f6577f4e487b7100000000000000000000000000000000000000000000000000000000600052602160045260246000fd5b600160008373ffffffffffffffffffffffffffffffffffffffff1673ffffffffffffffffffffffffffffffffffffffff16815260200190815260200160002060010160009054906101000a900460ff16600281111561067e577f4e487b7100000000000000000000000000000000000000000000000000000000600052602160045260246000fd5b146106be576040517f08c379a00000000000000000000000000000000000000000000000000000000081526004016106b590610c0c565b60405180910390fd5b81600160008573ffffffffffffffffffffffffffffffffffffffff1673ffffffffffffffffffffffffffffffffffffffff16815260200190815260200160002060010160006101000a81548160ff02191690836002811115610749577f4e487b7100000000000000000000000000000000000000000000000000000000600052602160045260246000fd5b021790555033600160008573ffffffffffffffffffffffffffffffffffffffff1673ffffffffffffffffffffffffffffffffffffffff16815260200190815260200160002060020160006101000a81548173ffffffffffffffffffffffffffffffffffffffff021916908373ffffffffffffffffffffffffffffffffffffffff160217905550505050565b8280546107e090610d87565b90600052602060002090601f0160209004810192826108025760008555610849565b82601f1061081b57805160ff1916838001178555610849565b82800160010185558215610849579182015b8281111561084857825182559160200191906001019061082d565b5b509050610856919061085a565b5090565b5b8082111561087357600081600090555060010161085b565b5090565b600061088a61088584610c98565b610c67565b9050828152602081018484840111156108a257600080fd5b6108ad848285610d45565b509392505050565b6000813590506108c481610ee3565b92915050565b6000813590506108d981610efa565b92915050565b600082601f8301126108f057600080fd5b8135610900848260208601610877565b91505092915050565b60008135905061091881610f0a565b92915050565b60006020828403121561093057600080fd5b600061093e848285016108b5565b91505092915050565b6000806040838503121561095a57600080fd5b6000610968858286016108b5565b9250506020610979858286016108ca565b9150509250929050565b60006020828403121561099557600080fd5b600082013567ffffffffffffffff8111156109af57600080fd5b6109bb848285016108df565b91505092915050565b6000602082840312156109d657600080fd5b60006109e484828501610909565b91505092915050565b6109f681610ce4565b82525050565b610a0581610d33565b82525050565b6000610a1682610cc8565b610a208185610cd3565b9350610a30818560208601610d54565b610a3981610ebe565b840191505092915050565b6000610a51602e83610cd3565b91507f4964656e74697479566572696669636174696f6e3a20495046532055524c206360008301527f616e6e6f7420626520656d7074790000000000000000000000000000000000006020830152604082019050919050565b6000610ab7603783610cd3565b91507f4964656e74697479566572696669636174696f6e3a20446f63756d656e74206e60008301527f6f742070656e64696e6720766572696669636174696f6e0000000000000000006020830152604082019050919050565b6000610b1d603083610cd3565b91507f4964656e74697479566572696669636174696f6e3a20446f63756d656e74206160008301527f6c7265616479207375626d6974746564000000000000000000000000000000006020830152604082019050919050565b610b7f81610d29565b82525050565b6000602082019050610b9a60008301846109ed565b92915050565b60006080820190508181036000830152610bba8187610a0b565b9050610bc960208301866109fc565b610bd660408301856109ed565b610be360608301846109ed565b95945050505050565b60006020820190508181036000830152610c0581610a44565b9050919050565b60006020820190508181036000830152610c2581610aaa565b9050919050565b60006020820190508181036000830152610c4581610b10565b9050919050565b6000602082019050610c616000830184610b76565b92915050565b6000604051905081810181811067ffffffffffffffff82111715610c8e57610c8d610e8f565b5b8060405250919050565b600067ffffffffffffffff821115610cb357610cb2610e8f565b5b601f19601f8301169050602081019050919050565b600081519050919050565b600082825260208201905092915050565b6000610cef82610d09565b9050919050565b6000819050610d0482610ecf565b919050565b600073ffffffffffffffffffffffffffffffffffffffff82169050919050565b6000819050919050565b6000610d3e82610cf6565b9050919050565b82818337600083830152505050565b60005b83811015610d72578082015181840152602081019050610d57565b83811115610d81576000848401525b50505050565b60006002820490506001821680610d9f57607f821691505b60208210811415610db357610db2610e60565b5b50919050565b6000610dc482610d29565b91507fffffffffffffffffffffffffffffffffffffffffffffffffffffffffffffffff821415610df757610df6610e02565b5b600182019050919050565b7f4e487b7100000000000000000000000000000000000000000000000000000000600052601160045260246000fd5b7f4e487b7100000000000000000000000000000000000000000000000000000000600052602160045260246000fd5b7f4e487b7100000000000000000000000000000000000000000000000000000000600052602260045260246000fd5b7f4e487b7100000000000000000000000000000000000000000000000000000000600052604160045260246000fd5b6000601f19601f8301169050919050565b60038110610ee057610edf610e31565b5b50565b610eec81610ce4565b8114610ef757600080fd5b50565b60038110610f0757600080fd5b50565b610f1381610d29565b8114610f1e57600080fd5b5056fea2646970667358221220de71c5b8de9fbddfcfeddd6e4bf0fa86dd4eed5833ee487dca0b9984148d64d464736f6c63430008000033",
  "immutableReferences": {},
  "source": "// SPDX-License-Identifier: MIT\r\npragma solidity ^0.8.0;\r\n\r\ncontract IdentityVerification {\r\n    enum VerificationStatus {\r\n        Pending,\r\n        Approved,\r\n        Rejected\r\n    }\r\n\r\n    uint256 public documentCount = 0;\r\n\r\n    struct Document {\r\n        string ipfsUrl;\r\n        VerificationStatus status;\r\n        address submittedBy;\r\n        address verifiedBy;\r\n    }\r\n\r\n    mapping(address => Document) public documents;\r\n    address[] public users;\r\n\r\n    modifier onlyPendingVerification(address user) {\r\n        require(documents[user].status == VerificationStatus.Pending, \"IdentityVerification: Document not pending verification\");\r\n        _;\r\n    }\r\n\r\n    function submitDocument(string memory ipfsUrl) external {\r\n        require(bytes(ipfsUrl).length > 0, \"IdentityVerification: IPFS URL cannot be empty\");\r\n        require(documents[msg.sender].submittedBy == address(0), \"IdentityVerification: Document already submitted\");\r\n\r\n        documents[msg.sender] = Document({\r\n            ipfsUrl: ipfsUrl,\r\n            status: VerificationStatus.Pending,\r\n            submittedBy: msg.sender,\r\n            verifiedBy: address(0)\r\n        });\r\n\r\n        documentCount++;\r\n        users.push(msg.sender);\r\n    }\r\n\r\n    function verifyDocument(address user, VerificationStatus status) external onlyPendingVerification(user) {\r\n        documents[user].status = status;\r\n        documents[user].verifiedBy = msg.sender;\r\n    }\r\n}\r\n",
  "sourcePath": "G:\\Github-Repo\\Tech Creed\\TRINIT-TECHCREED-WEB3\\contracts\\IdentityVerification.sol",
  "compiler": {
    "name": "solc",
    "version": "0.8.0+commit.c7dfd78e.Emscripten.clang"
  },
  "schemaVersion": "3.4.16",
  "updatedAt": "2024-03-10T01:36:00.072Z",
  "networkType": "ethereum",
  "devdoc": {
    "kind": "dev",
    "methods": {},
    "version": 1
  },
  "userdoc": {
    "kind": "user",
    "methods": {},
    "version": 1
  }
}