{
  "contractName": "PortfolioContract",
  "abi": [
    {
      "inputs": [
        {
          "internalType": "address",
          "name": "",
          "type": "address"
        }
      ],
      "name": "portfolios",
      "outputs": [
        {
          "internalType": "string",
          "name": "resumeIpfsHash",
          "type": "string"
        }
      ],
      "stateMutability": "view",
      "type": "function",
      "constant": true
    },
    {
      "inputs": [
        {
          "internalType": "string",
          "name": "resumeIpfsHash",
          "type": "string"
        }
      ],
      "name": "UpdatePortfolio",
      "outputs": [],
      "stateMutability": "nonpayable",
      "type": "function"
    },
    {
      "inputs": [
        {
          "internalType": "string",
          "name": "name",
          "type": "string"
        },
        {
          "internalType": "string",
          "name": "proficiency",
          "type": "string"
        }
      ],
      "name": "addSkill",
      "outputs": [],
      "stateMutability": "nonpayable",
      "type": "function"
    },
    {
      "inputs": [
        {
          "internalType": "string",
          "name": "name",
          "type": "string"
        },
        {
          "internalType": "string",
          "name": "description",
          "type": "string"
        },
        {
          "internalType": "string",
          "name": "projectIpfsHash",
          "type": "string"
        }
      ],
      "name": "addProject",
      "outputs": [],
      "stateMutability": "nonpayable",
      "type": "function"
    },
    {
      "inputs": [
        {
          "internalType": "string",
          "name": "name",
          "type": "string"
        },
        {
          "internalType": "string",
          "name": "description",
          "type": "string"
        },
        {
          "internalType": "string",
          "name": "achievementIpfsHash",
          "type": "string"
        }
      ],
      "name": "addAchievement",
      "outputs": [],
      "stateMutability": "nonpayable",
      "type": "function"
    },
    {
      "inputs": [
        {
          "internalType": "address",
          "name": "user",
          "type": "address"
        }
      ],
      "name": "getPortfolio",
      "outputs": [
        {
          "components": [
            {
              "internalType": "string",
              "name": "resumeIpfsHash",
              "type": "string"
            },
            {
              "components": [
                {
                  "internalType": "string",
                  "name": "name",
                  "type": "string"
                },
                {
                  "internalType": "string",
                  "name": "proficiency",
                  "type": "string"
                }
              ],
              "internalType": "struct PortfolioContract.Skill[]",
              "name": "skills",
              "type": "tuple[]"
            },
            {
              "components": [
                {
                  "internalType": "string",
                  "name": "name",
                  "type": "string"
                },
                {
                  "internalType": "string",
                  "name": "description",
                  "type": "string"
                },
                {
                  "internalType": "string",
                  "name": "projectIpfsHash",
                  "type": "string"
                }
              ],
              "internalType": "struct PortfolioContract.Project[]",
              "name": "projects",
              "type": "tuple[]"
            },
            {
              "components": [
                {
                  "internalType": "string",
                  "name": "name",
                  "type": "string"
                },
                {
                  "internalType": "string",
                  "name": "description",
                  "type": "string"
                },
                {
                  "internalType": "string",
                  "name": "achievementIpfsHash",
                  "type": "string"
                }
              ],
              "internalType": "struct PortfolioContract.Achievement[]",
              "name": "achievements",
              "type": "tuple[]"
            }
          ],
          "internalType": "struct PortfolioContract.Portfolio",
          "name": "",
          "type": "tuple"
        }
      ],
      "stateMutability": "view",
      "type": "function",
      "constant": true
    }
  ],
  "bytecode": "0x608060405234801561001057600080fd5b5061147d806100206000396000f3fe608060405234801561001057600080fd5b50600436106100625760003560e01c80634e8fc7ab146100675780636cdac24a146100835780637baab3da1461009f5780637cf3dca7146100cf578063d862ae87146100eb578063eb22ae1114610107575b600080fd5b610081600480360381019061007c9190610d82565b610137565b005b61009d60048036038101906100989190610cd5565b610220565b005b6100b960048036038101906100b49190610cac565b610279565b6040516100c6919061119e565b60405180910390f35b6100e960048036038101906100e49190610d82565b61031f565b005b61010560048036038101906101009190610d16565b610408565b005b610121600480360381019061011c9190610cac565b6104cd565b60405161012e91906111c0565b60405180910390f35b600060405180606001604052808581526020018481526020018381525090506000803373ffffffffffffffffffffffffffffffffffffffff1673ffffffffffffffffffffffffffffffffffffffff16815260200190815260200160002060020181908060018154018082558091505060019003906000526020600020906003020160009091909190915060008201518160000190805190602001906101dd929190610b64565b5060208201518160010190805190602001906101fa929190610b64565b506040820151816002019080519060200190610217929190610b64565b50505050505050565b806000803373ffffffffffffffffffffffffffffffffffffffff1673ffffffffffffffffffffffffffffffffffffffff1681526020019081526020016000206000019080519060200190610275929190610b64565b5050565b600060205280600052604060002060009150905080600001805461029c9061138f565b80601f01602080910402602001604051908101604052809291908181526020018280546102c89061138f565b80156103155780601f106102ea57610100808354040283529160200191610315565b820191906000526020600020905b8154815290600101906020018083116102f857829003601f168201915b5050505050905081565b600060405180606001604052808581526020018481526020018381525090506000803373ffffffffffffffffffffffffffffffffffffffff1673ffffffffffffffffffffffffffffffffffffffff16815260200190815260200160002060030181908060018154018082558091505060019003906000526020600020906003020160009091909190915060008201518160000190805190602001906103c5929190610b64565b5060208201518160010190805190602001906103e2929190610b64565b5060408201518160020190805190602001906103ff929190610b64565b50505050505050565b600060405180604001604052808481526020018381525090506000803373ffffffffffffffffffffffffffffffffffffffff1673ffffffffffffffffffffffffffffffffffffffff16815260200190815260200160002060010181908060018154018082558091505060019003906000526020600020906002020160009091909190915060008201518160000190805190602001906104a8929190610b64565b5060208201518160010190805190602001906104c5929190610b64565b505050505050565b6104d5610bea565b6000808373ffffffffffffffffffffffffffffffffffffffff1673ffffffffffffffffffffffffffffffffffffffff16815260200190815260200160002060405180608001604052908160008201805461052e9061138f565b80601f016020809104026020016040519081016040528092919081815260200182805461055a9061138f565b80156105a75780601f1061057c576101008083540402835291602001916105a7565b820191906000526020600020905b81548152906001019060200180831161058a57829003601f168201915b5050505050815260200160018201805480602002602001604051908101604052809291908181526020016000905b8282101561072b57838290600052602060002090600202016040518060400160405290816000820180546106089061138f565b80601f01602080910402602001604051908101604052809291908181526020018280546106349061138f565b80156106815780601f1061065657610100808354040283529160200191610681565b820191906000526020600020905b81548152906001019060200180831161066457829003601f168201915b5050505050815260200160018201805461069a9061138f565b80601f01602080910402602001604051908101604052809291908181526020018280546106c69061138f565b80156107135780601f106106e857610100808354040283529160200191610713565b820191906000526020600020905b8154815290600101906020018083116106f657829003601f168201915b505050505081525050815260200190600101906105d5565b50505050815260200160028201805480602002602001604051908101604052809291908181526020016000905b82821015610940578382906000526020600020906003020160405180606001604052908160008201805461078b9061138f565b80601f01602080910402602001604051908101604052809291908181526020018280546107b79061138f565b80156108045780601f106107d957610100808354040283529160200191610804565b820191906000526020600020905b8154815290600101906020018083116107e757829003601f168201915b5050505050815260200160018201805461081d9061138f565b80601f01602080910402602001604051908101604052809291908181526020018280546108499061138f565b80156108965780601f1061086b57610100808354040283529160200191610896565b820191906000526020600020905b81548152906001019060200180831161087957829003601f168201915b505050505081526020016002820180546108af9061138f565b80601f01602080910402602001604051908101604052809291908181526020018280546108db9061138f565b80156109285780601f106108fd57610100808354040283529160200191610928565b820191906000526020600020905b81548152906001019060200180831161090b57829003601f168201915b50505050508152505081526020019060010190610758565b50505050815260200160038201805480602002602001604051908101604052809291908181526020016000905b82821015610b5557838290600052602060002090600302016040518060600160405290816000820180546109a09061138f565b80601f01602080910402602001604051908101604052809291908181526020018280546109cc9061138f565b8015610a195780601f106109ee57610100808354040283529160200191610a19565b820191906000526020600020905b8154815290600101906020018083116109fc57829003601f168201915b50505050508152602001600182018054610a329061138f565b80601f0160208091040260200160405190810160405280929190818152602001828054610a5e9061138f565b8015610aab5780601f10610a8057610100808354040283529160200191610aab565b820191906000526020600020905b815481529060010190602001808311610a8e57829003601f168201915b50505050508152602001600282018054610ac49061138f565b80601f0160208091040260200160405190810160405280929190818152602001828054610af09061138f565b8015610b3d5780601f10610b1257610100808354040283529160200191610b3d565b820191906000526020600020905b815481529060010190602001808311610b2057829003601f168201915b5050505050815250508152602001906001019061096d565b50505050815250509050919050565b828054610b709061138f565b90600052602060002090601f016020900481019282610b925760008555610bd9565b82601f10610bab57805160ff1916838001178555610bd9565b82800160010185558215610bd9579182015b82811115610bd8578251825591602001919060010190610bbd565b5b509050610be69190610c12565b5090565b6040518060800160405280606081526020016060815260200160608152602001606081525090565b5b80821115610c2b576000816000905550600101610c13565b5090565b6000610c42610c3d84611213565b6111e2565b905082815260208101848484011115610c5a57600080fd5b610c6584828561134d565b509392505050565b600081359050610c7c81611430565b92915050565b600082601f830112610c9357600080fd5b8135610ca3848260208601610c2f565b91505092915050565b600060208284031215610cbe57600080fd5b6000610ccc84828501610c6d565b91505092915050565b600060208284031215610ce757600080fd5b600082013567ffffffffffffffff811115610d0157600080fd5b610d0d84828501610c82565b91505092915050565b60008060408385031215610d2957600080fd5b600083013567ffffffffffffffff811115610d4357600080fd5b610d4f85828601610c82565b925050602083013567ffffffffffffffff811115610d6c57600080fd5b610d7885828601610c82565b9150509250929050565b600080600060608486031215610d9757600080fd5b600084013567ffffffffffffffff811115610db157600080fd5b610dbd86828701610c82565b935050602084013567ffffffffffffffff811115610dda57600080fd5b610de686828701610c82565b925050604084013567ffffffffffffffff811115610e0357600080fd5b610e0f86828701610c82565b9150509250925092565b6000610e258383611026565b905092915050565b6000610e3983836110fc565b905092915050565b6000610e4d838361115a565b905092915050565b6000610e6082611273565b610e6a81856112c6565b935083602082028501610e7c85611243565b8060005b85811015610eb85784840389528151610e998582610e19565b9450610ea48361129f565b925060208a01995050600181019050610e80565b50829750879550505050505092915050565b6000610ed58261127e565b610edf81856112d7565b935083602082028501610ef185611253565b8060005b85811015610f2d5784840389528151610f0e8582610e2d565b9450610f19836112ac565b925060208a01995050600181019050610ef5565b50829750879550505050505092915050565b6000610f4a82611289565b610f5481856112e8565b935083602082028501610f6685611263565b8060005b85811015610fa25784840389528151610f838582610e41565b9450610f8e836112b9565b925060208a01995050600181019050610f6a565b50829750879550505050505092915050565b6000610fbf82611294565b610fc981856112f9565b9350610fd981856020860161135c565b610fe28161141f565b840191505092915050565b6000610ff882611294565b611002818561130a565b935061101281856020860161135c565b61101b8161141f565b840191505092915050565b600060608301600083015184820360008601526110438282610fb4565b9150506020830151848203602086015261105d8282610fb4565b915050604083015184820360408601526110778282610fb4565b9150508091505092915050565b600060808301600083015184820360008601526110a18282610fb4565b915050602083015184820360208601526110bb8282610f3f565b915050604083015184820360408601526110d58282610eca565b915050606083015184820360608601526110ef8282610e55565b9150508091505092915050565b600060608301600083015184820360008601526111198282610fb4565b915050602083015184820360208601526111338282610fb4565b9150506040830151848203604086015261114d8282610fb4565b9150508091505092915050565b600060408301600083015184820360008601526111778282610fb4565b915050602083015184820360208601526111918282610fb4565b9150508091505092915050565b600060208201905081810360008301526111b88184610fed565b905092915050565b600060208201905081810360008301526111da8184611084565b905092915050565b6000604051905081810181811067ffffffffffffffff82111715611209576112086113f0565b5b8060405250919050565b600067ffffffffffffffff82111561122e5761122d6113f0565b5b601f19601f8301169050602081019050919050565b6000819050602082019050919050565b6000819050602082019050919050565b6000819050602082019050919050565b600081519050919050565b600081519050919050565b600081519050919050565b600081519050919050565b6000602082019050919050565b6000602082019050919050565b6000602082019050919050565b600082825260208201905092915050565b600082825260208201905092915050565b600082825260208201905092915050565b600082825260208201905092915050565b600082825260208201905092915050565b60006113268261132d565b9050919050565b600073ffffffffffffffffffffffffffffffffffffffff82169050919050565b82818337600083830152505050565b60005b8381101561137a57808201518184015260208101905061135f565b83811115611389576000848401525b50505050565b600060028204905060018216806113a757607f821691505b602082108114156113bb576113ba6113c1565b5b50919050565b7f4e487b7100000000000000000000000000000000000000000000000000000000600052602260045260246000fd5b7f4e487b7100000000000000000000000000000000000000000000000000000000600052604160045260246000fd5b6000601f19601f8301169050919050565b6114398161131b565b811461144457600080fd5b5056fea26469706673582212202dd2a8bd7b5fa66051910b8e8a0ab9773b2a8218e1f0e9d0abe49541b5769de764736f6c63430008000033",
  "immutableReferences": {},
  "source": "// SPDX-License-Identifier: MIT\npragma solidity ^0.8.0;\n\ncontract PortfolioContract {\n    struct Portfolio {\n        string resumeIpfsHash;\n        Skill[] skills;\n        Project[] projects;\n        Achievement[] achievements;\n    }\n\n    struct Skill {\n        string name;\n        string proficiency;\n    }\n\n    struct Project {\n        string name;\n        string description;\n        string projectIpfsHash;\n    }\n\n    struct Achievement {\n        string name;\n        string description;\n        string achievementIpfsHash; \n    }\n\n    mapping(address => Portfolio) public portfolios;\n\n    function UpdatePortfolio(string memory resumeIpfsHash) external {\n        portfolios[msg.sender].resumeIpfsHash = resumeIpfsHash;\n    }\n\n    function addSkill(string memory name, string memory proficiency) external {\n        Skill memory newSkill = Skill({ name: name, proficiency: proficiency });\n        portfolios[msg.sender].skills.push(newSkill);\n    }\n\n    function addProject(string memory name, string memory description, string memory projectIpfsHash) external {\n        Project memory newProject = Project({\n            name: name,\n            description: description,\n            projectIpfsHash: projectIpfsHash\n        });\n        portfolios[msg.sender].projects.push(newProject);\n    }\n\n    function addAchievement(\n        string memory name,\n        string memory description,\n        string memory achievementIpfsHash\n    ) external {\n        Achievement memory newAchievement = Achievement({\n            name: name,\n            description: description,\n            achievementIpfsHash: achievementIpfsHash\n        });\n        portfolios[msg.sender].achievements.push(newAchievement);\n    }\n\n    function getPortfolio(address user) external view returns (Portfolio memory) {\n        return portfolios[user];\n    }\n}",
  "sourcePath": "/home/tenshkumar-k/Documents/GitHub/TRINIT-TECHCREED-WEB3/contracts/PortfolioContract.sol",
  "compiler": {
    "name": "solc",
    "version": "0.8.0+commit.c7dfd78e.Emscripten.clang"
  },
  "schemaVersion": "3.4.16",
  "updatedAt": "2024-03-09T22:21:24.387Z",
  "networkType": "ethereum",
  "devdoc": {
    "kind": "dev",
    "methods": {},
    "version": 1
  },
  "userdoc": {
    "kind": "user",
    "methods": {},
    "version": 1
  }
}