{
  "contractName": "UserRegistration",
  "abi": [
    {
      "anonymous": false,
      "inputs": [
        {
          "indexed": true,
          "internalType": "address",
          "name": "userAddress",
          "type": "address"
        },
        {
          "indexed": false,
          "internalType": "string",
          "name": "username",
          "type": "string"
        },
        {
          "indexed": false,
          "internalType": "string",
          "name": "email",
          "type": "string"
        },
        {
          "indexed": false,
          "internalType": "string",
          "name": "role",
          "type": "string"
        }
      ],
      "name": "UserRegistered",
      "type": "event"
    },
    {
      "inputs": [
        {
          "internalType": "address",
          "name": "",
          "type": "address"
        }
      ],
      "name": "users",
      "outputs": [
        {
          "internalType": "string",
          "name": "username",
          "type": "string"
        },
        {
          "internalType": "string",
          "name": "email",
          "type": "string"
        },
        {
          "internalType": "string",
          "name": "role",
          "type": "string"
        },
        {
          "internalType": "address",
          "name": "userAddress",
          "type": "address"
        }
      ],
      "stateMutability": "view",
      "type": "function",
      "constant": true
    },
    {
      "inputs": [
        {
          "internalType": "string",
          "name": "_username",
          "type": "string"
        },
        {
          "internalType": "string",
          "name": "_email",
          "type": "string"
        },
        {
          "internalType": "string",
          "name": "_role",
          "type": "string"
        }
      ],
      "name": "registerUser",
      "outputs": [],
      "stateMutability": "nonpayable",
      "type": "function"
    },
    {
      "inputs": [
        {
          "internalType": "address",
          "name": "_userAddress",
          "type": "address"
        }
      ],
      "name": "isUserExists",
      "outputs": [
        {
          "internalType": "bool",
          "name": "",
          "type": "bool"
        }
      ],
      "stateMutability": "view",
      "type": "function",
      "constant": true
    }
  ],
  "bytecode": "0x608060405234801561001057600080fd5b5061099d806100206000396000f3fe608060405234801561001057600080fd5b50600436106100415760003560e01c8063509222cd14610046578063a87430ba14610076578063d637dcfa146100a9575b600080fd5b610060600480360381019061005b91906105da565b6100c5565b60405161006d91906106f1565b60405180910390f35b610090600480360381019061008b91906105da565b61015f565b6040516100a09493929190610758565b60405180910390f35b6100c360048036038101906100be9190610603565b610347565b005b60008073ffffffffffffffffffffffffffffffffffffffff166000808473ffffffffffffffffffffffffffffffffffffffff1673ffffffffffffffffffffffffffffffffffffffff16815260200190815260200160002060030160009054906101000a900473ffffffffffffffffffffffffffffffffffffffff1673ffffffffffffffffffffffffffffffffffffffff1614159050919050565b6000602052806000526040600020600091509050806000018054610182906108af565b80601f01602080910402602001604051908101604052809291908181526020018280546101ae906108af565b80156101fb5780601f106101d0576101008083540402835291602001916101fb565b820191906000526020600020905b8154815290600101906020018083116101de57829003601f168201915b505050505090806001018054610210906108af565b80601f016020809104026020016040519081016040528092919081815260200182805461023c906108af565b80156102895780601f1061025e57610100808354040283529160200191610289565b820191906000526020600020905b81548152906001019060200180831161026c57829003601f168201915b50505050509080600201805461029e906108af565b80601f01602080910402602001604051908101604052809291908181526020018280546102ca906108af565b80156103175780601f106102ec57610100808354040283529160200191610317565b820191906000526020600020905b8154815290600101906020018083116102fa57829003601f168201915b5050505050908060030160009054906101000a900473ffffffffffffffffffffffffffffffffffffffff16905084565b600033905060405180608001604052808581526020018481526020018381526020018273ffffffffffffffffffffffffffffffffffffffff168152506000808373ffffffffffffffffffffffffffffffffffffffff1673ffffffffffffffffffffffffffffffffffffffff16815260200190815260200160002060008201518160000190805190602001906103dd9291906104ba565b5060208201518160010190805190602001906103fa9291906104ba565b5060408201518160020190805190602001906104179291906104ba565b5060608201518160030160006101000a81548173ffffffffffffffffffffffffffffffffffffffff021916908373ffffffffffffffffffffffffffffffffffffffff1602179055509050508073ffffffffffffffffffffffffffffffffffffffff167f509c70f523067009f7db7f46db6956d7af8b679323680dc3821a8bad001ac1e18585856040516104ac9392919061070c565b60405180910390a250505050565b8280546104c6906108af565b90600052602060002090601f0160209004810192826104e8576000855561052f565b82601f1061050157805160ff191683800117855561052f565b8280016001018555821561052f579182015b8281111561052e578251825591602001919060010190610513565b5b50905061053c9190610540565b5090565b5b80821115610559576000816000905550600101610541565b5090565b600061057061056b846107e3565b6107b2565b90508281526020810184848401111561058857600080fd5b61059384828561086d565b509392505050565b6000813590506105aa81610950565b92915050565b600082601f8301126105c157600080fd5b81356105d184826020860161055d565b91505092915050565b6000602082840312156105ec57600080fd5b60006105fa8482850161059b565b91505092915050565b60008060006060848603121561061857600080fd5b600084013567ffffffffffffffff81111561063257600080fd5b61063e868287016105b0565b935050602084013567ffffffffffffffff81111561065b57600080fd5b610667868287016105b0565b925050604084013567ffffffffffffffff81111561068457600080fd5b610690868287016105b0565b9150509250925092565b6106a38161082f565b82525050565b6106b281610841565b82525050565b60006106c382610813565b6106cd818561081e565b93506106dd81856020860161087c565b6106e68161093f565b840191505092915050565b600060208201905061070660008301846106a9565b92915050565b6000606082019050818103600083015261072681866106b8565b9050818103602083015261073a81856106b8565b9050818103604083015261074e81846106b8565b9050949350505050565b6000608082019050818103600083015261077281876106b8565b9050818103602083015261078681866106b8565b9050818103604083015261079a81856106b8565b90506107a9606083018461069a565b95945050505050565b6000604051905081810181811067ffffffffffffffff821117156107d9576107d8610910565b5b8060405250919050565b600067ffffffffffffffff8211156107fe576107fd610910565b5b601f19601f8301169050602081019050919050565b600081519050919050565b600082825260208201905092915050565b600061083a8261084d565b9050919050565b60008115159050919050565b600073ffffffffffffffffffffffffffffffffffffffff82169050919050565b82818337600083830152505050565b60005b8381101561089a57808201518184015260208101905061087f565b838111156108a9576000848401525b50505050565b600060028204905060018216806108c757607f821691505b602082108114156108db576108da6108e1565b5b50919050565b7f4e487b7100000000000000000000000000000000000000000000000000000000600052602260045260246000fd5b7f4e487b7100000000000000000000000000000000000000000000000000000000600052604160045260246000fd5b6000601f19601f8301169050919050565b6109598161082f565b811461096457600080fd5b5056fea26469706673582212201fdb06568e7be4a89e8d5b50b121c695dd534493c1fe667b09e718e62f6381f564736f6c63430008000033",
  "immutableReferences": {},
  "source": "// SPDX-License-Identifier: MIT\npragma solidity ^0.8.0;\n\ncontract UserRegistration {\n    struct User {\n        string username;\n        string email;\n        string role;\n        address userAddress;\n    }\n\n    mapping(address => User) public users;\n\n    event UserRegistered(address indexed userAddress, string username, string email, string role);\n\n    function registerUser(string memory _username, string memory _email, string memory _role) public {\n        address newUserAddress = msg.sender;\n        users[newUserAddress] = User(_username, _email, _role, newUserAddress);\n        emit UserRegistered(newUserAddress, _username, _email, _role);\n    }   \n\n    function isUserExists(address _userAddress) external view returns (bool) {\n        return users[_userAddress].userAddress != address(0);\n    }\n}\n",
  "sourcePath": "/home/tenshkumar-k/Documents/GitHub/TRINIT-TECHCREED-WEB3/contracts/UserRegistration.sol",
  "compiler": {
    "name": "solc",
    "version": "0.8.0+commit.c7dfd78e.Emscripten.clang"
  },
  "schemaVersion": "3.4.16",
  "updatedAt": "2024-03-09T22:21:23.693Z",
  "networkType": "ethereum",
  "devdoc": {
    "kind": "dev",
    "methods": {},
    "version": 1
  },
  "userdoc": {
    "kind": "user",
    "methods": {},
    "version": 1
  }
}